:0400000000EFA0F07D
:100008008A508A508A508A5040008A5040008A504C
:100018008A508A508A508A508A508A508A508A5008
:100028008A504000400040008A508A508A508A50C6
:100038008A508A508A508A508A508A508A508A50E8
:100048008A508A508A508A50400040008A508A500C
:100058008A508A508A5040008A508A508A508A5062
:100068008A508A508A508A508A508A508A508A50B8
:100078008A508A508A508A5040008A508A508A5042
:100088008A508A508A508A508A508A508A508A5098
:100098008A508A508A508A5040008A504000400056
:1000A8008A508A508A508A508A508A508A508A5078
:1000B8008A508A508A508A508A508A508A508A5068
:1000C8008A508A508A508A508A508A508A508A5058
:1000D8008A508A508A508A508A508A508A508A5048
:1000E80040008A508A508A5040004000400040003A
:0A00F8008A508A508A508A50FF0097
:02FFFE00000001
:020000040001F9
:100000000000840000000106FFFFFFFFFFFFFFFF6D
:10001000FFFFFFFFFFFFFFFFFFFFFFFFFFFFFFFFF0
:10002000FFFFFFFFFFFFFFFFFFFFFFFFFFFFFFFFE0
:10003000FFFFFFFFFFFFFFFFFFFFFFFFFFFFFFFFD0
:10004000FFFFFFFFFFFFFFFFFFFFFFFFFFFFFFFFC0
:10005000FFFFFFFFFFFFFFFFFFFFFFFFFFFFFFFFB0
:10006000FFFFFFFFFFFFFFFFFFFFFFFFFFFFFFFFA0
:10007000FFFFFFFFFFFFFFFFFFFFFFFFFFFFFFFF90
:10008000FFFFFFFFFFFFFFFFFFFFFFFFFFFFFFFF80
:10009000FFFFFFFFFFFFFFFFFFFFFFFFFFFFFFFF70
:1000A000FFFFFFFFFFFFFFFFFFFFFFFFFFFFFFFF60
:1000B000FFFFFFFFFFFFFFFFFFFFFFFFFFFFFFFF50
:1000C000484010390000E001C03C000267F448409D
:1000D00013C00000E0004E7510390000E001C03C84
:1000E0000001671010390000E00000000000003C33
:1000F00000014E75000000004E757E2E6000012C40
:100100007E2E60000126203C000000014E7B000294
:10011000207C00008000203C000010002648D1C058
:100120002748044A2E7C00008400303C4EF9204FC2
:1001300030C043FAFFE820C930C043FA00DC20C9D0
:1001400030C043FAFF9420C930C043FAFF7420C97D
:1001500030C043FAFFA620C930C043FAFFA420C92B
:1001600030C043FA263420C97000174005E4174018
:1001700005E5174005E8374005EA374005D6177C06
:10018000005005E6177C000E05E2177C003805E7F5
:1001900049EB048E41EB05EC2748042E6100032255
:1001A000610008A0202B044A90AB042E61001BDCE8
:1001B00041FA3404610008EA41FA29E861001A743E
:1001C00041FA00922748040261001FE64EEB04004A
:1001D0007E2C60567E2A60527E28604E7E26604AC3
:1001E0007E2460467E2260427E20603E7E1E603A13
:1001F0007E1C60367E1A60327E18602E7E16602A63
:100200007E1460267E1260227E10601E7E0E601AB2
:100210007E0C60167E0A60127E08600E7E06600A02
:100220007E0460067E0260027E00610002CA6100F8
:10023000081243FA2FFA3E31700041F1700061005C
:10024000086041FA333561000858202B04526B04D2
:1002500061001B2C41FA33566100084672FF2741AA
:100260000452174105DC4BEB0490610000EC610087
:100270000BFC67F6650861000156600003C661006B
:1002800006406100014A222B042A610002186532EF
:100290002250202B04329089E28853804840244821
:1002A000484034D951C8FFFC484051C8FFF4274AA0
:1002B0000432274A0436274A043A274A043E274A8A
:1002C0000442102B04906764226B043245F120082D
:1002D000274A0432274A0436274A043A274A043E6A
:1002E000274A0442276B044A044622099288E2897D
:1002F000538148414841352151C9FFFC484151C90A
:10030000FFF443EB0490244872FF24C124EB042A39
:10031000E24A534234D951CAFFFC601050484A188F
:1003200066FC320802410001D0C1228822484A906E
:1003300066EA610001986000FF246100077E70207A
:100340006100077870086100077253416010610016
:100350000768702061000764720041EB04904EABA7
:10036000040C64FA67F8B03C00076718B03C000D55
:10037000670006CA4A416606B03C002063E0B03C14
:10038000000867B6B27C00FF640C11801000524177
:100390006100072860C8700760F611802000524293
:1003A00052411035100067000094B03C002067EA0D
:1003B000B03C0030654AB03C003963DE7ADFCA00E9
:1003C000BA3C00416540BA3C004663CE60387200DA
:1003D0002401174105DD700010351000675EB03C48
:1003E000005F6458B03C003C641CB03C0030644C7E
:1003F000174005DAB03C00226776B03C0024679ACB
:10040000B03C002A6536082B000605DD662E903CC0
:10041000002AD04043FA2C1A303100006B6E43FAA8
:100420002FA6D2C076FF38015243103130006B0A3C
:100430005244B035400067F0604032041180200023
:10044000524252414A00674A903C003A6706B03C2B
:1004500000496604174005DD903C00556600FF78B2
:10046000174005DA1035100067D2B02B05DA67CCDB
:10047000118020005242524160EA3801524310314B
:1004800030006AF852431031300066A21035100077
:1004900060AA70000102670611802000524221808C
:1004A00020004E75206B042E600220402018670843
:1004B000B2906EF659484E75594853804E75664E47
:1004C000206B042E700020C0274804322A6B042EB3
:1004D000534D276B044A0446202B04322740043630
:1004E0002740043A2740043E27400442700017404A
:1004F00005EA610001D049EB048E201F2E7C00002C
:1005000084002F0070002740045A174005DF4E7505
:1005100067C04E75651272FF2741042A72004A00B7
:10052000670AB03C00B366E6610003966100FF769F
:100530006100093A6716B03C00B366D272FF2741EA
:10054000042A61000926670461000376177C000015
:1005500005DD610004EE201867B422406100012C23
:100560002018B0AB042A62A648E700C06100181C3E
:100570004CDF0300702061000542B03C002266069B
:100580000A2B00FF05DD101866082049200866BC0C
:100590004E756AE24A2B05DD6BDC45FA2AFE727F56
:1005A000C200E54945F21000101A6100050E720004
:1005B000121A6BD2301245FA2E0E45F20000101AB4
:1005C000610004F851C9FFF860BC61000396202B5C
:1005D0000472B0AB043A6C00FC20610002142E8857
:1005E0002F2B045270AA6100087A610007081F2BA4
:1005F00005B5610006FE2F2B05903F2B0594277C47
:10060000800000000590377C810005946100085E41
:10061000B03C00AF660861000852610006D62F2B7F
:1006200005903F2B05942F2B04723F3C00816018EE
:10063000300DC07C0001DAC0201D6700FC18275D6A
:10064000045261000828611A61404A2B04526B046D
:10065000274D045A101D67D8B03C003A67E460008B
:10066000FBC46700008C0A0000806B0002F6B03CFF
:1006700000286400FBB04880D04041FA287C30302C
:10068000000048700000600007E24EEB0424B03C1C
:100690000003670C4E7566FC177C000005DC66F4F1
:1006A00043EB0590BBC9650A274D045A276B0452DA
:1006B0000456584F102B05DC6700FB9A41FA2EB305
:1006C0006000FB84206B042E6720610001F4B2AB54
:1006D0000452630E204D4A1866FC3008C07C0001AD
:1006E000D0C06100FDC86500FB244A202748046291
:1006F0004E75610010E2174005E44E756600FB265A
:100700004A2B04526A00FAE6202B045A6700FADEEC
:100710002A40276B045604524E75660C6100FDAEEC
:10072000274D045A6000FF226100FDA8601C2F0DB8
:100730002F2B04523F3C009C487AFF0E6000072E8E
:100740002F0D2F2B04523F3C008D61000720487A6B
:10075000FEF86100016C206B042EB2AB0452630EF4
:10076000204D4A1866FC3008C07C0001D0C06100F2
:10077000FD3C6500FA982A48534D274D045A4E75A2
:100780000C6F009C00046600FA5C1E00672EBE3CE5
:10079000003A67289E3C00B0670853076600FA8657
:1007A0007EFF610006C6610005624A2B059467065C
:1007B000177C00FF0594BF2B05946614276F000675
:1007C00004522A6F000A41FAFE802E886000069EBD
:1007D0004FEF000E601466160C6F008D000466006B
:1007E000FA405C4F275F04522A5F61042A484E7525
:1007F000204D7222743A6008B4006708B200670C9A
:10080000101866F453484E75B20067F4101866F875
:1008100060F2610004F661000654B03C00AD67145C
:10082000B03C00896600F9FE204D6100063E2A4872
:100830006400F9F2102B0594671E6100062E650016
:10084000FF12B03C008E6700FE1E6100FE16101500
:10085000B03C00A967944E75101D163C00A9183CC9
:10086000008B7A00101D6720B0046604524560F4C6
:10087000B00366F051CDFFEE610005F26500FED4D5
:100880006000FDE04A1D66FC534D4E7561000F4847
:100890001400610005D83F00B03C008D6708B03CF3
:1008A00000896600F98053026606301F6000FDB8BB
:1008B000610005B8610AB03C002C67EA301F4E7534
:1008C00072002001610005A6642E2F022401D2814E
:1008D0006500F952D2816500F94CD2826500F94673
:1008E000D2816500F940903C0030D2806900F93631
:1008F0006100057865D6241F2741042A4E753F3CC8
:100900008180600A3F3C810060046100055E6100F7
:10091000076C67324A2B05B56B00F8DE6636274850
:1009200004726100130E277C8000000005983017C8
:100930003740059C176B0595059EB12B059E610000
:10094000100E6100130A610005240C00002C67BA28
:10095000544F4E754A2F00016604529060E8539040
:1009600060E461000714274804721F2B05B570BDB1
:10097000610004F061000394102B05B5175F05B505
:10098000E31861000372670012C6246B0472206BC7
:1009900005902250B3EB04466516B1EB04326510A6
:1009A000720032280004205061000B06206B059075
:1009B000B9C866025C4C24D834904E75610006BA02
:1009C000274804724A2B05B56B0C61001DF26100CB
:1009D00009BC6000127A7200204161001DE26408C7
:1009E000720161000AFE108061000ADE609C6100F5
:1009F00000B461000478674AB03C00A86764B03C6A
:100A000000AC675EB03C002C6740B03C003B670028
:100A10000086610002F64A2B05B56BD2610013B265
:100A200061000A607000102B05E6670C902C00072F
:100A3000902B05E56402610A616A60B611BC000092
:100A40001000700D6174700A6070142B05E5B42BF2
:100A500005E7650461EC603E942B05E264FA44020C
:100A600060223F0061000D6C340061000400B03C66
:100A700000296600F7B0301FB03C00A86606942B32
:100A800005E5631270005300C480670A70205302AA
:100A9000612851CAFFFC610003D26600FF5C4E75FD
:100AA000610009E061000BD0670C3200534110185F
:100AB000610851C9FFFA4E75703F2F01B03C00200C
:100AC0006528122B05E66610122B05E5922B05E230
:100AD0006614174105E5600EB22B05E566082F0088
:100AE0006100FF60201F522B05E54EAB0412B03CA5
:100AF000000D66187200122B05E4670C70004EABF7
:100B0000041251C9FFFA700D174105E5221F4E75F9
:100B10002A5F4A2B05E06A0A276B045E04526000D4
:100B2000F6D841FA2A766100FF782A6B045A4E758E
:100B300061000862B03C0022660E61000306703B53
:100B4000610003206100FF5E6100F80470004A103C
:100B5000660A6000FB58206B04627098174005E03D
:100B60002748046661000512274804722F0D2A6B7E
:100B70000466610002F8661E4A2B05E06B72610094
:100B8000FF386100F7CA4A1066046000FB202A485B
:100B9000534D610002D64A2B05B56A201400B03CC3
:100BA00000226706743A702C534D524D1600204DAA
:100BB000610008D42A4A6100FDD260101F2B05B5E0
:100BC00061001DA6175F05B5610010846100029EDB
:100BD000670AB03C002C6600FF38524D274D046672
:100BE0002A5F610002886736487AFF7A60000272E5
:100BF0006100FBFE2A48524DB03C003A6712320DAC
:100C0000C27C0001DAC1241D6700F612275D045E74
:100C10006100025AB03C00836700FF7860D2206B0D
:100C200004664A2B05E06A06274804624E754A109E
:100C300066024E7541FA29546000FE666610584FF0
:100C40000C5700816600F5E2206F0002601C610015
:100C5000042C584F303C0081721C6002DFC1B05739
:100C60006600F5C6B1EF000266F2376F0006059C1C
:100C7000276F00080598176F001205B56100021E66
:100C8000176B059D059E102B0595B12B059E2748DA
:100C9000047261000CBA176F001205B561000FB045
:100CA000376F000C059C276F000E0598176B059D8C
:100CB000059E102B0595B12B059E6100103C322F2F
:100CC0000006B1414A0067044A016A0E276F00140A
:100CD00004522A6F00186000F970DEFC001C6100ED
:100CE000018CB03C002C6600F9606100017E61005F
:100CF000FF5E6116B040082B000705B5660665006B
:100D0000F4F84E756400F4F24E75534D72001741BD
:100D100005B5601C41FA22CA30301002487000004C
:100D20002F2B05903F2B05941F2B05E3323010002D
:100D30003F01610000E4177C000005E36100012E23
:100D4000903C00BC652AB03C0003650A4A2B05E3D1
:100D50006660600000867201E121102B05E3B32B71
:100D600005E3B02B05E36400F4BC610000FE60D035
:100D70004A2B05E3663CD03C000A645E66084A2BB9
:100D800005B56B00087E7200D000D0001200301F45
:100D900041FA224EB070100064466100FF583F00D7
:100DA0006100FF72301F222B05D86A223000672EA7
:100DB000603C102B05B5122B05E3D000D301177C46
:100DC000000005B5174105E3534D723060C041FA8C
:100DD0002210B0701000641660C472FF301F6732BA
:100DE000B07C006467046100FF0C274105D8101F28
:100DF0001200E208174005E1375F059C275F059860
:100E0000176B059D059E102B0595B12B059EE209DC
:100E10004E75102B05944E75615065001B4C4A00B1
:100E20006B000090B03C002467001B3EB03C0025E6
:100E300067001B36B03C002E67001B2EB03C002222
:100E4000660C101D204D6100063A2A4A4E75B03CD2
:100E5000002866446100FEB670296006487A097869
:100E6000702CB01D67066000F3BC101D1015B03C5F
:100E7000002067F6B03C00A9640EB03C003A64085C
:100E80001C3C00D0D00690064E756100FE687228AA
:100E90004FEF00046000FF0A610001E24A2B05B534
:100EA00067000D906A06274805904E752010600077
:100EB00004BCB03C00B367D2B03C00B26700FF5A3C
:100EC000B03C00AE6606323C002C60C4B03C00ABC7
:100ED00067000514903C00BF6500F34AC07C007FAA
:100EE000D04041FA20B0323000004870100041FA82
:100EF000205830300000671241F000004ED06100F1
:100F0000FF544A2B05B56A00F2F04E756100FF46AA
:100F10004A2B05B56B00F2E24E75177C000005B553
:100F2000101D4E756100FDE64A2B05B56A00F2CA38
:100F3000141DB43C002C6600F2EC2F2B05906100D0
:100F400008AC205F4E756100FDC44A2B05B56B00EF
:100F5000F2A861000DD07200141DB43C002C660C88
:100F60002F00610008722200201F141DB43C0029CC
:100F70006600F2B24E756116B580600003F0610E36
:100F80008082600003E86106C082600003E06100C7
:100F90000228240061000CF66000021E6100021AA3
:100FA0004680600003C86100FD4E650661000D4A81
:100FB0006042177C000005B5610006BC2248220093
:100FC000206B0598610006B4240066044A816724FA
:100FD0009481670C650470FF600822007001600254
:100FE00020025381B30856C9FFFC6708640470FFF0
:100FF00060027001520012007001E338C02B05E15D
:1010000067000CDE70FF60000CD86100FE5472FFB8
:1010100061706100FE5866F24E75612E6708B43C3F
:1010200000206420E5A060000344611E67F8B43C22
:101030000020650A4A806A0C70FF60000330E4A05B
:101040006000032A7000600003246100078E140012
:1010500061000C3A610001624A024E75B03C0061C9
:101060006410B03C0041640480404E75B03C005BAD
:101070004E75B03C007B4E7561024E75720061008A
:10108000FDEC174105B461D46400F19A720041EBA4
:10109000046A2081174105B5B27C00046406118002
:1010A000100052416100FDC465EE61B065EAB03CDC
:1010B0000024660C002B0080046B6100FDAE601004
:1010C000B03C0026660A002B0080046C6100FD9C89
:1010D0004A2B05DF670E6A14202B046A720841EB65
:1010E0000432601C903C0028670000F4202B046A46
:1010F000720441EB04360800001767045441584855
:101100002268000420506006B0986776D1C1B1C94A
:1011100066F64A2B05DF660A45FAFF60B5D766001A
:10112000F0C0082B000005DF6600F0BE246B04420F
:10113000240A9489204A5881D5C1274A0442E28A68
:101140006712538248424842352051CAFFFC484248
:1011500051CAFFF44A2B05DF6B0808000017660A26
:101160006004D3AB0436D3AB043AD3AB043E20C007
:1011700020BC00000000080000176706317C00005A
:1011800000042200D2814841E219E249C23C00C079
:10119000174105B5177C000005DF4E757005D02B93
:1011A00005DBD080D0884E756100FCC06100FB4437
:1011B0004A2B05956B00F0620C2B00A0059465008E
:1011C0000B646600F0544A2B05956A000B58202BDF
:1011D000059044806800F0422740042A4E753F2B5A
:1011E00005B472003F012F2B046A61BC48404A409D
:1011F0006600F016275F046A321F301F3F2B042C55
:101200003F0052416100FC66B03C002C67D617419C
:1012100005DB6100FC44375F05B4206B043E2748C2
:1012200005ACB1EB0442672E2010B0AB046A670A2C
:1012300020680004D1EB05AC60E44A2B05B46600DD
:10124000EFC46100FF5850483018B02B05DB670031
:1012500000946000EF844A2B05B46700EF806100C2
:10126000FF3C202B046A20C07204080000176702AC
:101270007206274105A8122B05DB584830C1321FE2
:1012800030C1610000AE274005A8532B05DB66EE98
:10129000D1EB05A86500EF7AB1EB0446650C61005F
:1012A000028EB1EB04466400EF68274804427000E8
:1012B000222B05A8E2895341310051C9FFFC484166
:1012C0004A4167065341484160EE206B05AC202B34
:1012D00004429088214000044A2B05B466525048CD
:1012E000375805DB7000274005A83218B257650053
:1012F000EF184A806702613A7200321FD08127409E
:1013000005A8532B05DB66E2177C000005B57203C8
:101310004A2B046B6A0A7205177C008005B5600CC5
:101320004A2B046C6A06177C004005B56104D1C0E5
:101330004E75202B05A824004842C0C1C4C14842B4
:101340004A426600EECCD0826500EEC6D0AB05A85E
:101350006500EEBE4E754A2B05B56A0461000318A0
:10136000610001CC202B044690AB0442177C0000A6
:1013700005B5377CA0000594274005906A0006401B
:10138000003C000160000638102B05E5C0BC0000E1
:1013900000FF60D84A2B04526B00EE624E7570ABB2
:1013A0006100FAC0177C008005DF6100FCDA274885
:1013B00005B061E00C1D00286600EE6A177C007E17
:1013C00005DF6100FCB46100FA9070BD6100FA9421
:1013D0002F2B046A2F0D6100F412206B05B0209FA3
:1013E000215F00044E75177C008105DF6100FA7CE7
:1013F0006100FC941F2B05B52F080C150028660012
:10140000EE246100FA50205F274805B01F2B05B578
:10141000202800046100FCDA101FE3186100F8D8EE
:10142000671243EB0476B9C96700EDC6392800049A
:10143000291060022F102F081F2B05B561322F0DC8
:10144000206B05B02A506100F8C26100FA206600E6
:10145000EDD42A5F101F205F4A006A08209C315C8F
:1014600000046002209F101FE3186100F88A4E7587
:101470004A2B05B56A0007F024486000F5126100A8
:1014800009507422360272005341244852411030F0
:1014900010006710B0026704B00366F0B03C002291
:1014A0006602524AD5C1B1CB651EB1EB042E641859
:1014B0002248200166042041600E6126D1C1D3C1BB
:1014C0005340112151C8FFFC43EB0476B9C96700B2
:1014D000ED2039012908274C0590177C008005B5BF
:1014E0004E754A41672E2F007000174005DE7001CF
:1014F000C041D041640470014840206B044691C053
:10150000B1EB04426512274804462748044E201FC9
:101510004A414E7530414E754A2B05DE6B00ECF2A8
:101520002F09610A225F177C008005DE60CC48E746
:10153000E0E0276B044A0446222B0442700022405C
:10154000206B043A41E80004246B043E600861000B
:10155000008441E8000AB1CA65F441E8FFFC246B4D
:101560000442602424280004D488201008000017B6
:10157000671430280008D040D0C041E8000A615408
:101580005C48B1C266F82042B5C866D8204C45EB2D
:10159000048E6006613E41E80006B5C866F6200983
:1015A000672C20517200322900045281C23C00FE97
:1015B000D1C1246B0446B1CA670CE289534135207E
:1015C00051C9FFFC228A275104466000FF6C4CDFA2
:1015D00007074E7520106728B2806424B0AB04461C
:1015E000641E70FF302800044440C03C00FED0ABB5
:1015F0000446B0906706221022484E7527400446E4
:101600004E75487AF7382F2B05906100F80C4A2B5D
:1016100005B56A00EBE4205F226B059032280004D8
:10162000D26900046500EBCE2F086100FEB62748A2
:10163000059820573028000420506120206B059029
:1016400061386118205F6132206B059822086700BD
:10165000FE784481D2AB044E6000FE6E3200671407
:10166000226B044E2F09534012D851C8FFFC274962
:10167000044E205F4E75206B059048E74040B9C886
:1016800066025C4C700022583018B9C86610B3EB83
:101690000446660A7201C240D280D3AB0446204998
:1016A0004CDF02024A804E75610001307201610018
:1016B000FE3210806000FE12C1416100F79C4A8139
:1016C00067227000B2680004651A6014C1416100AD
:1016D000F7884A81670E3028000490816406700004
:1016E0003228000422486100FDFA20492F00618A57
:1016F000D1DF30016100FF666000FDCE7E00534700
:101700002F006100F768B03C002C660C101D2F08FC
:10171000610000DA205F2E006100F73E201F72009A
:1017200053806B00EAF4B068000464B82207DE401E
:101730006506BE68000465AC32280004924060A4CF
:101740006100FF342200675622486100FD96D1C136
:10175000D3C1340153421021B03C005B640AB03C59
:101760000041650400000020110051CAFFEA602E0C
:101770006100FF042200672622486100FD66D1C196
:10178000D3C1340153421021B03C0061650AB03C22
:10179000007B6404020000DF110051CAFFEA600010
:1017A000FD28101D6100F8D66100F6AE4A2B05B584
:1017B0006A00EA4620106000FBB4487AFBB0600083
:1017C000FEB66100FEB24A406700EA4E10106000AB
:1017D000FBBC6100F6966100F51A6100F9D4123C79
:1017E0000080D281C2806600EA304E756100F50447
:1017F0006100F9BE48404A406600EA1E48404E7506
:101800006100FE7467222C4D2A48D1C010103F00A1
:101810002F0810BC00006100F6546100114C205FDD
:10182000301F10802A4E4E75374005944E7561006A
:10183000F4C26100F9842F006100F6266198205FF0
:101840004E75611E6100F61A6100F4A86100F96A24
:1018500048404A40670652406600E9BE4840205F63
:101860004E756100F48E6100F950080000006600BA
:10187000E96420572E804ED06100F93E20401010C0
:101880006000FB0A61A810804E756100F92CE20827
:101890006500E942D000C188700030106000FACEC7
:1018A0006100F916E2086500E92CD000C18820101B
:1018B0006000FABA618C30804E7561A66100F5A2B5
:1018C0006100F4306100F8F2205F20804E75610005
:1018D000F7AC2F08182B05B56100F5866100F79E5F
:1018E000245FB82B05B56600E910201020D224C073
:1018F0004A046AD83010309234804E754EAB0406DC
:101900006000F5564EEB04184EEB041E487AF55E67
:101910006100FF504E756100FF162F083F007400F4
:101920006100F54A67066100F5342400321F205F2C
:101930001010B500C00167F84E750A2B00800595A0
:10194000176B059D059E102B0595B12B059E102B41
:1019500005946700033841EB0598102B059C6746FA
:10196000902B05946722650A376B059C059444000B
:10197000514844002F01B03C00206D047200600407
:101980002210E0A92081221F4A2B059E6B1A202BD2
:101990000598D0AB0590640AE290522B059465003F
:1019A000E874274005904E7543EB0590B3C8660276
:1019B0005049201122102740059093AB0590640AEE
:1019C0000A2B00FF059544AB0590202B05906B2E4C
:1019D0006606374005944E752F0122007000102BCB
:1019E00005946714D2815BC8FFFC4A40670A6A020B
:1019F0007001530027410590221F174005944E7532
:101A00004A2B05956B00E8127E001747059E1E2B9A
:101A100005946700E8049EBC00000081177C0081EB
:101A200005942C2B0590277C800000000598377CBE
:101A30008100059C6100FF1870003740059CDC8622
:101A4000274605986758377C8000059C6100013067
:101A50004A2B05946748122B0594923C008244015E
:101A6000202B0590E2A87C00223C4000000041FAB7
:101A700014087A1E78016006E8A29282DC902400A5
:101A80002601E8A36402528390836AEC200258483E
:101A90005284E28B670451CDFFF0DC8620062800DB
:101AA0007A004A8767166A0444877A801745059545
:101AB0004847E18F7A885385DE876AFA2747059081
:101AC00017450594277CB17217F80598377C80007C
:101AD000059C176B0595059E6118274405986710AE
:101AE000377C8200059C176B0595059E6100FE60A2
:101AF0004E7548E7F8004A2B05946776102B059C35
:101B00006770176B059E0595D02B0594640A903C71
:101B100000806400E7006006903C00806554174038
:101B20000594222B0590242B05983801200148406C
:101B30003600C2C2C0C24842C8C2C6C2D2BC00003F
:101B4000800042414841D280D2846406D6BC000164
:101B50000000D2BC0000800042414841D2836B08A3
:101B6000D281532B0594670A274105904CDF001F53
:101B70004E757000274005903740059460EE2F07A2
:101B800070002400142B05946700E676102B059C4A
:101B900067669042D07C0080176B059E0595422BAE
:101BA000059F262B0590282B0598B883674465066A
:101BB0009883562B059F614648412802614284C59F
:101BC0001E2B059F6708E20FE291E2525200D442B9
:101BD000640852816404E291524036006B1A024359
:101BE000FF006600E6302E1F174005942741059040
:101BF0004E757201E2A960DE7000220060E82404E4
:101C00002A034245484588C5680278FF3C043204EF
:101C1000CCC3C8C53E0642464846D8867C009C4791
:101C200095846A085341DC43D5856BF848423406F5
:101C30004E7520104840374005946708807C00802E
:101C40004840E18027400590102B05944E752F08E1
:101C5000206B0472082B000605B5670C610000C6F6
:101C60002080205F4E752F086100FD60612C202BC5
:101C70000590E0984840C07C007F022B00800595CD
:101C8000806B059448402080205F4E75376B059C23
:101C90000594276B059805904E75102B05946720C9
:101CA000202B0590D0BC00000080640AE290522BEB
:101CB00005946500E560C03C0000274005904E7526
:101CC000174005954E757000102B059467F6102B84
:101CD0000595488048C0E08065EA70014E7561E670
:101CE00027400590377CA0000594D0806000FCD090
:101CF000177C000005954E75122B059C67C8102BAC
:101D0000059E6BCA102B0595B22B0594660A222BF3
:101D10000598B2AB0590670865B80A00008060B20C
:101D200070004E75202B059067322F01123C00A0E9
:101D3000922B05946500E4DE660E4A2B05956A1A1F
:101D4000448069166000E4CEB23C00206502700059
:101D5000E2A84A2B05956A024480221F2740042AE4
:101D60004E75103C00A0902B05946310B03C0020F1
:101D70006400026272FFE1A1C3AB05904E7541FAA7
:101D800018006100ED1C202B045243FA0DEE720086
:101D900041EB05CC2401263110006714782F524402
:101DA00090836AFAD083118420005841524260E641
:101DB000D03C0030118020005348524843EB05D5F9
:101DC000B1C96700ECDC0C10003067EE6000ECD2AB
:101DD00043EB05C6742008AB000705956702742D18
:101DE0001282142B0594660870307201600001A8FD
:101DF000177C000005ACB43C00816448277C9896B1
:101E000080000598377C9800059C176B0595059E0A
:101E10006100FCE0177C00F905AC6028376B059485
:101E2000059C276B05900598176B0595059E277CEB
:101E3000CCCCCCCD0590377C7D0005946100FCB402
:101E4000522B05AC277C98967F700598377C9800BC
:101E5000059C6100015062C46750277CF423F800A0
:101E60000598377C9400059C41EB05906100013694
:101E700062202010122800042400E488D082640428
:101E8000E29052015601208011410004532B05AC11
:101E900060DA277C800000000598377C8000059C74
:101EA000176B0595059E6100FAA66100FE78740126
:101EB000102B05ACD03C00086B0CB03C000964064C
:101EC00053001400700272005500174005AD174210
:101ED00005AC100267026A14528113BC002E100078
:101EE0004A026708528113BC0030100074007080F1
:101EF00041FA1122263020005200D7AB042A0800F4
:101F00000007650467F2600266EE64064400D03C98
:101F1000000BD03C002F584252411600C63C007FB7
:101F200013831000042B000105AC6608528113BC1A
:101F3000002E1000C03C00800A000080B43C001C51
:101F400066AE103110005381B03C003067F4B03CF5
:101F5000002E6702528113BC002B10024A2B05ADE4
:101F600067386A0A13BC002D1002442B05AD13BC60
:101F700000451001142B05AD702F5200943C000A4F
:101F800064F8D43C003A138010031382100413BC8D
:101F900000001005600A1380100013BC000010013F
:101FA00020494E757000122B059CB22B0594660AD1
:101FB000222B0598B2AB05906708650453804E75D7
:101FC00052804E75277C800000000590377C810090
:101FD00005944E75700027400590374005944E7566
:101FE0004A2B059467DE4A2B059C67E81F2B059D4D
:101FF0006A2072001741059D122B0594927C008087
:102000006300E216202B0590E3A06600E20C650257
:102010001E802F2B05903F2B05946100FC70610002
:10202000F9E0301F275F05983740059C1740059E53
:10203000102B0595B12B059E6100FAB86158175F0A
:1020400005954E754A2B059467060A2B0080059569
:102050004E75277C800000000590377C8100059438
:102060004E754A2B05956A00E1AC7000274005903B
:10207000374005944E75277C800000000590177C42
:10208000000005954A2B05B46A024481D23C0081C8
:10209000174105944E75102B059467B6B03C00644B
:1020A00065B0177C000005B4222B0590B03C00877A
:1020B00062B06608B2BCB00F33C764A64A2B059560
:1020C0006A0C177C00FF05B4177C00000595277C7F
:1020D000B8AA3B290598377C8100059C177C000035
:1020E000059E6100FA0E177C000005D91A2B059495
:1020F0009A3C00806324202B059022002C05444646
:10210000DC7C0020ECA9174105D9EBA86700FF682B
:1021100027400590377C80000594277CB17217F822
:102120000598377C8000059C177C0000059E6100A7
:10213000F9C2202B05901A2B05949A7C0082444505
:10214000EAA872002C3C26A3D11041FA0D2C78008D
:102150007A036136594853847A09612E5948538469
:102160007A1261264A2B05B46A064481442B05D9AC
:102170007083DC816B065380DC866AFA2746059003
:10218000D02B05D9174005944E7552842406E8A239
:102190002601E8A34A806B0CD282DC83909851CD53
:1021A000FFEA4E7592829C83D09851CDFFDE4E752A
:1021B0004A2B0594670841EB05A06100FAAA72AFAB
:1021C0007412202B05A0D0806402B30051CAFFF81E
:1021D000274005A027400590377C800005946000CB
:1021E000F7EA6138376B0594059C276B05900598D5
:1021F00027410590174305946700E01A6100F7CC6A
:102200006000F97C277CC90FDAA30598377C810030
:10221000059C176B0595059E6100F734177C00003F
:1022200005B4277CA2F9836F0598377C7F00059C55
:10223000176B0595059E6100F8BA102B0594671C75
:1022400041FA0B362C2B059053006710903C008010
:102250006B18B03C00206404E1AE6618748176000F
:10226000203C80000000220360624400B03C001E5D
:1022700064EAE0AE176B0595059EDC8664060A2BC2
:1022800000FF0595DC86640C0A2B00FF05B40A2BC1
:1022900000FF059EE48E67C47A012028FFFC22001F
:1022A0009C9860089C989083D28260122400EAA2D5
:1022B0002601EAA34A866AECDC98D0839282528592
:1022C000BABC0000001E66E4748126024A2B05B4E5
:1022D0006B04C141C5432740059017420594600037
:1022E000F6EA102B0594670000AC177C000005B4DB
:1022F000B03C008165286608202B0590D080671EC1
:10230000277C800000000598377C8100059C176BB6
:102310000595059E6100F868177C00FF05B4202B29
:102320000590123C0082922B0594E2A841FA0ACA59
:102330007C00223C400000007A1D78016006E8A283
:10234000D282DC9024002601E8A390836AF0200268
:1023500058485284E28351CDFFF2177C00820594E5
:10236000274605906100F6644A2B05B46A261E2BA9
:102370000595177C00000595277CC90FDAA2059802
:10238000377C8180059C177C00FF059E6100F5C0AD
:10239000174705954E756100F496B03C000864003F
:1023A000DE7801D04E756100F486B03C0008640010
:1023B000DE6801904E75101D6100F474B03C000899
:1023C0006400DE5622006100EAA4B03C00296600E9
:1023D000DE546100EA96700003106700F90470FF94
:1023E0006000F8FE4A2B05B56A00DDE6246B059017
:1023F0003E2A00046700DDDA70003F003F003F0026
:102400003F002F0A720020416100F0BE101DB03C59
:10241000002C6600DE106100028E4A026700DDB209
:102420006100E8E84A2B05B56B00DDCE4A2B059428
:102430006732322F000AB27C000864283001D24192
:10244000D240D24141FA084427701002059830303A
:102450001000907C01003740059C177C0000059E11
:102460006100F4EC6100F96A610001FE45EB05C60C
:102470007C00782E3406524610326000677AB03CF9
:1024800000456706B00466EE60EA360653435246DE
:1024900010326000B03C002D6600DD7E52461032E6
:1024A0006000B03C00306704700A60085246700F4C
:1024B000C032600034030C42000166025242D44034
:1024C000700A90426E0CD440D6400C4300016E025C
:1024D00076003C0270001580200053420C4200013F
:1024E000671270304A4367EE103230005343B00435
:1024F00066E460F4158420004A426602340636021F
:102500005243382F00085244B24463221030400036
:10251000B03C00256706B03C002366EA7030BC433F
:1025200063061032300052431180400060D87C00B6
:102530007A0053426608740115BC00302000382F21
:102540000008B2446402380153446B62103040000A
:102550007E30B03C002567087E20B03C0023660634
:102560004A4266346042B03C002C66104A4266081B
:102570000C30002540FF66301E00602CB03C002D62
:102580006710B03C002B66C00C12002D670414BC11
:10259000002B1A004A4267081E322000534260088E
:1025A0004A0666041E121C0711874000609A4A42C0
:1025B00066144A0567544A0666500C05002B6706E8
:1025C0000C12002D66447A233E0153473C2F000431
:1025D00053466E023C07103160000C000023671E5A
:1025E0000C00002567180C00002C67120C00002B53
:1025F000670C0C00002D67060C00002E660210050B
:1026000011807000534651CFFFCE41EC0006274C9D
:1026100005906100F004302F000467203F40000661
:10262000610000844A026614613E3F6F00040006A8
:1026300041EC0006274C05906100EFDE101DB03C18
:1026400000296600FDCA204C222B04466100F02CB4
:102650002741044622483200205F6100F01E4FEF00
:10266000000820496000EE62226F00043E29000449
:10267000342F000A3C2F0008320692426202D247F1
:102680006100EE606100EE42226F0004225178008A
:1026900011B12000400052445242BE426602740012
:1026A000BC4266EC4E75226F00043E2900042251A4
:1026B0003C2F000A3F47000C7A007600740010316E
:1026C0006000B03C002C6742B03C00236706B03C81
:1026D000002566084A856A105243602EB03C002BE4
:1026E0006706B03C002D66048400601EB03C002EDE
:1026F00066144A856B143006906F000A3F40000C48
:102700007AFF840060044A0266085246BE4662AE02
:102710007C003F4600083F43000E4E75B23C00214E
:102720006400DAF6741F41EB05B678307600E28873
:10273000D7041183200051CAFFF4177C000005D68E
:102740004A01670E4481D2BC000005D641F3100057
:10275000600E1010670AB03C0030660E524860F2FE
:1027600043EB05D6B1C9660253486000ED16B23C92
:1027700000096400DAA4740741EB05CE7830160036
:10278000E898C63C000F1A03DA3C00F6C704118330
:10279000200051CAFFEA60A24A2B05E8661E4EAB34
:1027A000040C640E174005E9177C002005EA600060
:1027B000DEDE4A2B05EA6704532B05EA4E754EAB65
:1027C000040C650A102B05EA67F2102B05E9177C4B
:1027D000000005EA003C00014E756100E5304A2B1F
:1027E00005B56B00DA14612E64FC6100F4A060F69C
:1027F0006100E51A4A2B05B56B00D9FE611863FC30
:102800006100F48A60F6B03C00296600DA184FEFE8
:1028100000046000E6566100E654B03C002C66E619
:102820003F2B05942F2B05906100E4E24A2B05B560
:102830006B00D9C6275F0598301F3740059C176B82
:102840000595059EB12B059E6000F4AEB03C002CB2
:10285000672C6100EF824A006712B03C00106500EF
:10286000D9B8B02B05E26404174005E2174005E62D
:102870006100E5FA672CB03C002C6600D9A8610025
:10288000EF524A006B00D992B03C00016500D98A32
:10289000122B05E66708B02B05E66E00D97C1740C1
:1028A00005E2102B05E6670AB02B05E26404174029
:1028B00005E2902B05E264FAD02B05E2D02B05E26D
:1028C0004400D02B05E6174005E74E754A2B0595C9
:1028D0006B00D9464A2B059467F048E77800202B17
:1028E000059074002202761F082B000005946606EE
:1028F000D080D582D281D080D5822801D8845284DC
:10290000B48465049484528151CBFFE6274105903D
:10291000102B0594907C0080E24864025240D07CE9
:102920000080174005944CDF001E6000F09E101DD3
:102930006100E74A6100E52220086000EA3041F8C2
:10294000040020086000EA26277CC90FDAA205905F
:10295000377C820005944E75277CC90FDAA205905A
:10296000377C830005944E7548E77C007200260191
:10297000280117410595174105B5174105AF6100BD
:10298000E4EC653CB03C002D6608177C00FF059523
:102990006006B03C002B66066100E4D06522B03CC6
:1029A000002E67000092B03C00246700010AB03C92
:1029B0000025670001646000008C6100E4AE646C77
:1029C000610001A864F452836100E4A065F8B03CA2
:1029D000002E66066100E49465FAB03C004566642A
:1029E0006100E4886528B03C002D6706B03C00B368
:1029F0006608177C00FF05AF600EB03C002B67082F
:102A0000B03C00B26600D81E6100E4606436C8FCC9
:102A1000000AC0BC000000FF903C0030D880B83CE9
:102A200000306FE46100E44465FA6018B03C002EA9
:102A3000670460A653836100E432649E6100012C48
:102A400064F260904A2B05AF6A024484D8837620F2
:102A50004A8167526B085383D2815BCBFFFCB8BCC1
:102A6000000000266E00D7AEB8BCFFFFFFDA6D3461
:102A70004484C9FC00062F0841FA02101770400078
:102A8000059C277040020598205F0A0300802741BB
:102A9000059017430594176B0595059E4CDF003E86
:102AA0006000F050720026011743059427410590FD
:102AB0004CDF003E4E75177C004005B57620610066
:102AC000E3AA6514803C0020903C0061652AB03C7C
:102AD00000066424D03C003A616C64E258836900CB
:102AE000D7346100E38665F4803C0020903C0061AF
:102AF0006506B03C000665E44A8167AA6B0853830B
:102B0000D2815BCBFFFC0A03008017430594274169
:102B100005904CDF003E4E75177C004005B57620D1
:102B20006100E34864D2B03C003264CC24016124EB
:102B300064EE52836900D6DE6100E33064BAB03CD3
:102B4000003265EE60B22401D48265CAD48265C6C3
:102B5000D48265C2D48265BEC0BC000000FF903C38
:102B60000030D48065B022024E752401D4826508FD
:102B7000D4826504D48164DC4E753B9ACA0005F5A5
:102B8000E10000989680000F4240000186A00000FE
:102B90002710000003E8000000640000000A0000A5
:102BA0000000332E3232FF0096769951FB00F0BDC3
:102BB000C21BF800C097CE7CF5009A130B96F1006B
:102BC000F684DF57EE00C5371912EB009DC5ADA89E
:102BD000E700FC6F7C40E400C9F2C9CDE100A18FA1
:102BE00007D7DE00813F3979DA00CECB8F28D700B6
:102BF000A56FA5BAD40084595161D000D3C21BCFB0
:102C0000CD00A968163FCA0087867832C600D8D79B
:102C100026B7C300AD78EBC6C0008AC72305BC0049
:102C2000DE0B6B3AB900B1A2BC2FB6008E1BC9BF38
:102C3000B200E35FA932AF00B5E620F5AC009184A5
:102C4000E72AA800E8D4A510A500BA43B740A2001F
:102C50009502F9009E00EE6B28009B00BEBC200090
:102C60009800989680009400F42400009100C350CE
:102C700000008E009C4000008A00FA0000008700DF
:102C8000C80000008400A000000081008000000057
:102C90007D00CCCCCCCD7A00A3D70A3D770083123F
:102CA0006E987300D1B717597000A7C5AC476D0077
:102CB0008637BD066900D6BF94D66600ABCC7712C6
:102CC000630089705F415F00DBE6FECF5C00AFEB25
:102CD000FF0C59008CBCCC095500E12E1342520068
:102CE000B424DC354F00901D7CF74B00E69594BF73
:102CF0004800B877AA3245009392EE8F4100EC1E4F
:102D00004A7E3E00BCE508653B00971DA050370099
:102D1000F1C900813400C16D9A0131009ABE14CD11
:102D20002D00F79687AE2A00C612062527009E744E
:102D3000D1B82300FD87B5F32000CAD2F7F51D00F6
:102D4000A2425FF71A0081CEB32C1600CFB11EADA0
:102D50001300A6274BBE100084EC3C980C00D4ADA9
:102D60002DC00900AA2424990600881CEA14020038
:102D7000D9C7DCED4DBA76D42000000012E4051E60
:102D800009FB385C051111D5028B0D440145D7E2D2
:102D900000A2F61F00517C560028BE5400145F2F7D
:102DA000000A2F99000517CD00028BE7000145F4BA
:102DB0000000A2FA0000517D000028BF000014604E
:102DC00000000A30000005180000028C00000146D7
:102DD000000000A3000000520000002900000015C0
:102DE0000000000B000000060000000300000002CD
:102DF00000000001000000011DAC67050FADBAFD29
:102E000007F56EA703FEAB7701FFD55C00FFFAABB9
:102E1000007FFF55003FFFEB001FFFFD001000008B
:102E20000008000000040000000200000001000093
:102E300000008000000040000000200000001000A2
:102E40000000080000000400000002000000010073
:102E50000000008000000040000000200000001082
:102E60000000000800000004000000020000000153
:102E700000000000000000002327D4F41058AEFA30
:102E8000080AC48E0401562202002AB0010005542B
:102E9000008000AA00400014002000020010000082
:102EA0000008000000040000000200000001000013
:102EB0000000800000004000000020000000100022
:102EC00000000800000004000000020000000100F3
:102ED0000000008000000040000000200000001002
:102EE00000000008000000040000000200000001D3
:102EF0000000000000000000D79ED6D2DD44D8F2CA
:102F0000DC38E116DC5EDA6ADA06D85AD822D91A39
:102F1000D7CCD848D8DED98CD7A6D994D7FADA0C32
:102F2000EA1EEA0CEA10E4A6E98CE9BCE9C2EA145C
:102F3000D836D888DAFED804D61CD618D5C6F954A7
:102F4000DAC4E9D6F49EF4AEDFC4DFC4DFC4DDC466
:102F5000DF0CDF0CDFC4DFC4DFC4DFC4DFC4DFC4C9
:102F6000DFC4DFC4DFC4DFC4DFC4DFB6DFC4DFB665
:102F7000DFB6DFB6DFB6DFC4DFFEDFFE0000000035
:102F80000000DFD2DFD2DFD200000000DFDCDFDCB8
:102F9000DFDCDDC4ED4AEDCEED5CE968E3C2E3F4CD
:102FA000F938F21CEA6CF102F270F288F24EF34E3C
:102FB000E8E4E8F6E90CE826E4EAE86CE82EE7DC69
:102FC000E7ACE714F7DAF788F422F846F85CF9AAD8
:102FD000F9B4F9C4F99AE80EE724E738E768F45041
:102FE0000079E96E0079E95A007BEB12007BEB9ED9
:102FF000007FF0000050DFA60046DF960046DF9E0F
:103000000056E04A0056E03A007DF064005ADFBC0A
:103010000064DFC6FFF0BDC0000186A0FFFFD8F04E
:10302000000003E8FFFFFF9C0000000AFFFFFFFF16
:1030300000000002FFFF0004FFFF0006FFFFFFFF8C
:10304000FFFFFFFFFFFFFFFFFFFFFFFFFFFFFFFF90
:10305000FFFFFFFF0008000C000E0012FFFF00142E
:103060000024003D0054006D007C00860093009910
:10307000FFFFFFFF00A800D600E400F300F8FFFF09
:10308000010D013701620176018E019AFFFFFFFFFA
:10309000FFFFFFFFFFFFFFFF01A945010071460190
:1030A000007C4E0200E7440200544903009E4401A4
:1030B0000063520201144C0100BE44010058470253
:1030C000008952010133490000995205011B470351
:1030D000008D5204012252010118530201544F0085
:1030E00000F34E0200EE4901009B5702019A4C0288
:1030F00000C55302013C44010060500200FF44023D
:1031000000664C0200CD4302003D4400006A4C02C0
:1031100000D1500301074302004B4C0200C143039E
:1031200000464E0100E4570301A347010086530205
:10313000015D4204002F420400295402016245024D
:10314000006D5400016E4600007F53020148540296
:10315000016A4E0100EB530201505503017D5703F4
:10316000019E2BFF00022DFF00042AFF00002FFF0D
:1031700000065EFF01A941010018450100744F00DF
:1031800000F53E00000E3C0000083EFF00103DFF31
:10319000000C3CFF000A53020140490200A3410217
:1031A00000145502018946020081500201035302B6
:1031B000014C5202012F4C0200C945020077430224
:1031C000004F53020144540201664102001F5003A4
:1031D00000F84403005B4C0300AF4C0200BA5303F9
:1031E00001585602018E4102001B550501764C051F
:1031F00000A8430300414803009342030024420512
:1032000000354D0200D64D0200DF5205010D500081
:1032100000FD5403017056050192530301374C041D
:1032200000B4520501284D0300DA55050182003033
:1032300000410048005D006900770080008E00A218
:1032400000AF00C000CF00DE00EC00FC010F011E4B
:1032500001310141015401680179018101884E4524
:10326000585420776974686F757420464F52005324
:10327000796E7461780052455455524E20776974C6
:10328000686F757420474F535542004F7574206F17
:103290006620444154410046756E6374696F6E2028
:1032A00063616C6C004F766572666C6F77004F756A
:1032B00074206F66206D656D6F727900556E646560
:1032C00066696E65642073746174656D656E740003
:1032D000417272617920626F756E647300446F751C
:1032E000626C652064696D656E73696F6E00446918
:1032F00076696465206279207A65726F00496C6C2A
:103300006567616C206469726563740054797065E7
:10331000206D69736D6174636800537472696E67C0
:1033200020746F6F206C6F6E6700537472696E67E4
:1033300020746F6F20636F6D706C65780043616EF1
:10334000277420636F6E74696E756500556E6465D1
:1033500066696E65642066756E6374696F6E004C95
:103360004F4F5020776974686F757420444F005533
:103370006E646566696E6564207661726961626C0F
:103380006500556E64696D656E73696F6E65642066
:1033900061727261790057726F6E672064696D6542
:1033A0006E73696F6E730041646472657373004677
:1033B0006F726D6174004E6F7420696D706C656D15
:1033C000656E74656400B400B200B300B5003CBB28
:1033D000BE00BD003EBABC009E00425328C14E4410
:1033E000B7534328D3544E28CC00494E2428D849FB
:1033F00054434C52A74954534554A649545453542A
:1034000028D900414C4C9B48522428D64C45415267
:10341000A14F4E549F4F5328C90041544183454307
:103420008845454B28CE454697494D854F4B459994
:103430004F9C004C5345A94E44804F52B8585028D9
:10344000C8004F52814EAB524528C3004554A44F8B
:10345000544F894F5355428D0045582428D7004674
:103460008B4E43934E505554844E5428C0004341D4
:1034700053452428D545454B28CF4546542428E1BB
:10348000454E28D0455487495354A04F4144954F49
:103490004728C74F4B459A4F4F509D00415828DA57
:1034A00049442428E3494E28DB004557A245585497
:1034B000824F54AE554C4C92004E9152B900454546
:1034C0004B28CD49DD4F4B45984F5328C452494EA8
:1034D000549E00414D42415345DC45414486454D93
:1034E0008F4553544F52458C455455524E8E494743
:1034F00048542428E24E4428C6554E8A004144448C
:1035000028E041564596474E28BF494E28CA5043A9
:1035100028AC515228C5544550AF544F5090545286
:103520002428D1574150A500414228A8414E28CB1C
:1035300048454EAD4FAA574F5049DE0043415345D1
:103540002428D44E54494CB053494E472428E453C0
:103550005228C200414C28D2415250545228DF0018
:103560004149549448494C45B149445448A300B694
:10357000000D0A427265616B00204572726F720025
:1035800020696E206C696E65200045787472612038
:1035900069676E6F7265640D0A005265646F20661C
:1035A000726F6D2073746172740D0A000D0A52659A
:1035B0006164790D0A002042797465732066726532
:1035C000650D0A0A456E68616E6365642036386B66
:1035D0002042415349432056657273696F6E203310
:1035E0002E35340D0A00000000000000000000002D
:1035F00000000000000000000000000000000000CB
:1036000000000000000000000000000000000000BA
:1036100000000000000000000000000000000000AA
:10362000000000000000000000000000000000009A
:1040000006EFA1F0080E0001B16F000E0401186F59
:104010001969C968000E086F0969C768000E106F3A
:104020001169C8683F0E0201036F04010095C69430
:104030002E0E436F010E446F080E456F000E476F42
:104040004691468B468F2095C294CA942093C28293
:10405000CA9200910181C68000930183C682009BB1
:10406000018BC68A0099BE88C6982091C280CA90EA
:104070000097BE86C696010E0201D56FA00ED46FC2
:10408000D189D18B0401009FC68E070E0201766F85
:104090000401009DBE8CC69C260E0201076FD28FC4
:1040A000000E616F050E626F1F0E636F1E0E646F50
:1040B0001D0E676F1C0E686F010E0001D56F020E9A
:1040C000D86F030ED96F060EDA6F070EDB6F020E84
:1040D000DC6F040EDD6F100EDE6F400EDF6F000E22
:1040E000D76F820ED66F020ED56F020ED86F030EF9
:1040F000D96F010EDA6F7F0EDB6F010EDC6F040EDD
:10410000DD6F200EDE6F400EDF6F000ED76F820E68
:10411000D66F000E056E000E046E000E0424D96EDC
:10412000100E0520DA6E000EDF6E044A052A05BE69
:10413000F4D7100E055CD8A0F0D7010EF86E550E1E
:104140000401596FAA0E596F5991080E5D6F000E48
:104150005E6F000E5F6F550E596FAA0E596F598131
:10416000D68EC284CEB0FED70001D4A509D0C86ACD
:10417000CFC4F6F4D1C4F7F40800F5C4C0F440D0BD
:10418000D4A315D0CEAA0AD0C86ACFC4D9F4D150CE
:104190000F0B1009DA6EDFC4C0F432D0CFC4D9F4EB
:1041A000D1500F0B1009DA6ED0C4DFF429D0CEAA9B
:1041B0001AD0D1C402F5CFC401F5000EC86E0104B7
:1041C00007E1E00E0218D8A403D0B7C4C0F418D099
:1041D000E00E02180110D8A403D0C7C2C0F410D05A
:1041E000BE96C0680DD0D1C402F5CFC401F5E00E73
:1041F00002180110D8A403D0D0C4C9F201D0BE96D1
:10420000BE98BE98C868BE88BE86ACD7036A026AEC
:10421000016A0401080E5D6F000E5E6F000E5F6F95
:06422000000102EFA0F016
:02422800110083
:020000040020DA
:10000000FF0FFF0FFF0FFF0FFF0FFF0FFF0FFF0F80
:10001000FF0FFF0FFF0FFF0FFF0FFF0FFF0FFF0F70
:10002000FF0FFF0FFF0FFF0FFF0FFF0FFF0FFF0F60
:10003000FF0FFF0FFF0FFF0FFF0FFF0FFF0FFF0F50
:020000040030CA
:0A0000008CFFFFF79FFFFFFFFFFFDB
:00000001FF
